:020000040800F2
:1000000000500020611C0008711B0008771B0008CD
:100010007D1B0008831B0008891B000800000000EE
:100020000000000000000000000000008F1B00081E
:100030009B1B000800000000A71B0008B31B000862
:10004000A91C0008A91C0008A91C0008A91C00087C
:10005000A91C0008A91C0008A91C0008A91C00086C
:10006000A91C0008A91C0008A91C0008A91C00085C
:10007000A91C0008A91C0008A91C0008A91C00084C
:10008000A91C0008A91C0008A91C0008A91C00083C
:10009000A91C0008A91C0008A91C0008A91C00082C
:1000A000A91C0008A91C0008A91C0008A91C00081C
:1000B000C11B0008A91C0008A91C0008D51B0008CA
:1000C000A91C0008A91C0008A91C0008A91C0008FC
:1000D000A91C0008A91C0008A91C0008A91C0008EC
:1000E000A91C0008A91C0008A91C000800000000A9
:1000F0000000000000000000000000000000000000
:0C01000000000000000000005FF808F1A3
:10010C0010B5054C237833B9044B13B10448AFF345
:10011C0000800123237010BD90000020000000001F
:10012C009064000808B5034B1BB103490348AFF3B7
:10013C00008008BD000000009400002090640008BE
:10014C0080B582B000AF0346FB80FB88184601F0F7
:10015C0009FE00BF0837BD4680BD80B582B000AF38
:10016C0078600B46FB701346BB70BB78002B08D134
:10017C007B6858687B681B890022194602F077F966
:10018C000AE0BB78012B07D17B6858687B681B8918
:10019C000122194602F06BF97B6858697B68198B50
:1001AC00FB7803F00103DBB21A4602F060F97B68BE
:1001BC00D8697B68198CFB785B08DBB203F0010310
:1001CC00DBB21A4602F053F97B68586A7B68198DCA
:1001DC00FB789B08DBB203F00103DBB21A4602F09A
:1001EC0046F97B68D86A7B68198EFB78DB08DBB232
:1001FC0003F00103DBB21A4602F039F97B68586B45
:10020C007B68198FFB781B09DBB203F00103DBB2AF
:10021C001A4602F02CF97B68D86B7B68B3F8401057
:10022C00FB785B09DBB203F00103DBB21A4602F088
:10023C001EF97B68586C7B68B3F84810FB789B09F7
:10024C00DBB203F00103DBB21A4602F010F97B6853
:10025C00D86C7B68B3F85010FB78DB09DBB21A461C
:10026C0002F005F97B68D8687B681B8A0022194666
:10027C0002F0FDF80120FFF763FF7B68D8687B680C
:10028C001B8A0122194602F0F2F80120FFF758FFF1
:10029C007B68D8687B681B8A0022194602F0E7F855
:1002AC000120FFF74DFF00BF0837BD4680BD80B56C
:1002BC0084B000AF78600B46FB701346BB70FB78C4
:1002CC001B09FB73FB78BB73BB78002B08D17B68D5
:1002DC0058687B681B890022194602F0C8F80AE0AE
:1002EC00BB78012B07D17B6858687B681B8901227E
:1002FC00194602F0BCF87B68586B7B68198FFB7B46
:10030C0003F00103DBB21A4602F0B1F87B68D86B3C
:10031C007B68B3F84010FB7B5B08DBB203F0010396
:10032C00DBB21A4602F0A3F87B68586C7B68B3F812
:10033C004810FB7B9B08DBB203F00103DBB21A46CF
:10034C0002F095F87B68D86C7B68B3F85010FB7B97
:10035C00DB08DBB203F00103DBB21A4602F087F8CC
:10036C007B68D8687B681B8A0022194602F07FF8EC
:10037C000120FFF7E5FE7B68D8687B681B8A0122A9
:10038C00194602F074F80120FFF7DAFE7B68D86892
:10039C007B681B8A0022194602F069F80120FFF7DE
:1003AC00CFFE7B68586B7B68198FBB7B03F0010316
:1003BC00DBB21A4602F05BF87B68D86B7B68B3F84B
:1003CC004010BB7B5B08DBB203F00103DBB21A46C7
:1003DC0002F04DF87B68586C7B68B3F84810BB7B17
:1003EC009B08DBB203F00103DBB21A4602F03FF8C4
:1003FC007B68D86C7B68B3F85010BB7BDB08DBB236
:10040C0003F00103DBB21A4602F031F87B68D868BE
:10041C007B681B8A0022194602F029F80120FFF79D
:10042C008FFE7B68D8687B681B8A0122194602F014
:10043C001EF80120FFF784FE7B68D8687B681B8A56
:10044C000022194602F013F80120FFF779FE00BFD5
:10045C001037BD4680BD80B584B000AFF8607B60BE
:10046C000B46FB721346BB72FB6800221A70FB68CA
:10047C00FA7A5A70FB68BA7A9A70FB687A685A6092
:10048C00FB683A8B1A81FB68FA69DA60FB683A8C74
:10049C001A82FB687A6A5A63FB683A8D1A87FB6882
:1004AC00FA6ADA63FB683A8EA3F84020FB687A6B31
:1004BC005A64FB683A8FA3F84820FB68FA6BDA643D
:1004CC00FB68B7F84020A3F85020FB68282283F87B
:1004DC005520FB68062283F85220FB680C2283F817
:1004EC005320FB68142283F854203220FFF728FE97
:1004FC0000223321F868FFF7DAFE0520FFF720FE13
:10050C0000223321F868FFF7D2FE0520FFF718FE12
:10051C0000223221F868FFF7CAFE0520FFF710FE13
:10052C00FB6893F8523000221946F868FFF7BFFEBB
:10053C00FB6893F8533000221946F868FFF7B7FEB2
:10054C00FB6893F8543000221946F868FFF7AFFEA9
:10055C00FB6893F8553000221946F868FFF7A7FEA0
:10056C0000220121F868FFF7A2FE00220221F868A0
:10057C00FFF79DFE00BF1037BD4680BD80B584B02F
:10058C0000AF78600B46FB701346BB700023FB7307
:10059C001D4BBB607B685B78FA789A4203D37B680F
:1005AC005B78013BFB707B689B78BA789A4203D3EB
:1005BC007B689B78013BBB70BB7810333B4413F8D2
:1005CC00082CFB781344FB737B681B78102B09D128
:1005DC00FB7B63F07F03DBB2002219467868FFF7E0
:1005EC00BCFD0CE07B681B78002B08D1FB7B63F017
:1005FC007F03DBB2002219467868FFF758FE00BF74
:10060C001037BD4680BD00BF0040145480B582B089
:10061C0000AF78600B46FB707B681B78102B06D103
:10062C00FB78012219467868FFF797FD09E07B6893
:10063C001B78002B05D1FB78012219467868FFF74F
:10064C0036FE00BF0837BD4680BD80B582B000AF16
:10065C007860396007E03B685A1C3A601B78194691
:10066C007868FFF7D3FF3B681B78002BF3D100BFF2
:10067C0000BF0837BD4680BD80B582B000AF786042
:10068C007B681B78102B05D1002201217868FFF7BD
:10069C0064FD08E07B681B78002B04D1002201214B
:1006AC007868FFF704FE0520FFF74AFD00BF083706
:1006BC00BD4680BD80B582B000AF78607B681B689A
:1006CC007A68D2681A607B681B687A6892685A608C
:1006DC007B681B6800229A607B681B680022DA60CA
:1006EC007B681B684FF480421A617B681B68002290
:1006FC005A617B681B6800229A617B681B68002228
:10070C00DA617B681B6800221A627B681B681846DA
:10071C0001F0BEF97B681B68184601F0C1FE7868D1
:10072C0000F066FB034618460837BD4680BD80B511
:10073C0086B002AF7860786800F05AFB0346002B55
:10074C002AD10723FB737B6818687B681B7999B2E5
:10075C007B681B6907F10F020093012301F0E4FF92
:10076C000346002B01D0002317E07B6818687B68D8
:10077C001B7999B27B681B6907F10F020093012367
:10078C0002F0D0F80346002B01D0002305E0786876
:10079C0000F02EFBFB7B00E0002318461037BD4613
:1007AC0080BD80B586B002AF78600B46FB70786870
:1007BC0000F01EFB0346002B15D107233B73FB787F
:1007CC007B737B6818687B681B7999B27B681B69A3
:1007DC0007F10C020093022301F0A6FF0346002B45
:1007EC0003D0022305E0012303E0786800F000FB4E
:1007FC00034618461037BD4680BD80B584B000AFA7
:10080C007860786800F0F4FA0346002B12D178680F
:10081C00FFF78DFF0346FB73FB7B43F01003FB7369
:10082C00FB7B19467868FFF7BCFF786800F0E0FAAC
:10083C00034600E0012318461037BD4680BD80B545
:10084C0084B000AF78600B46FB70786800F0D0FA8B
:10085C000346002B1AD17868FFF769FF0346FB7338
:10086C00FB7B23F00303FB73FB7803F00303FB70A8
:10087C00FA7BFB781343FB73FB7B19467868FFF715
:10088C0090FF786800F0B4FA034600E001231846A4
:10089C001037BD4680BD80B58AB002AF7860396034
:1008AC00386800F0A5FA0346002B40F0E4800023E2
:1008BC003B830023BB760023FB7600233B7700238E
:1008CC007B770023BB770023FB770023FB733B680C
:1008DC0018683B681B7999B23B681B6907F10F02DA
:1008EC000093012301F020FF0346002B07D07B6807
:1008FC001A4607F1180303CB10605160C2E03B6845
:10090C0018683B681B7999B23B681B6907F11002A8
:10091C000093082302F006F80346002B07D07B68EF
:10092C001A4607F1180303CB10605160AAE0FA7F56
:10093C003B7C03F00F03DBB21344DBB2FB77FA7F93
:10094C003B7C1B11DBB203F00703DBB219468900B9
:10095C000B445B00DBB21344DBB2FB77BA7F7B7CCE
:10096C0003F00F03DBB21344DBB2BB77BA7F7B7CA3
:10097C001B11DBB203F00703DBB2194689000B44F1
:10098C005B00DBB21344DBB2BB77BB7C03F04003F0
:10099C00002B16D17A7FBB7C03F00F03DBB2134420
:1009AC00DBB27B777A7FBB7C1B11DBB203F00303DA
:1009BC00DBB2194689000B445B00DBB21344DBB29B
:1009CC007B773A7FFB7C03F00703DBB21344DBB28B
:1009DC003B77FA7E3B7D03F00F03DBB21344DBB2B3
:1009EC00FB76FA7E3B7D1B11DBB203F00303DBB21B
:1009FC00194689000B445B00DBB21344DBB2FB7677
:100A0C00BA7E7B7D03F00F03DBB21344DBB2BB7603
:100A1C00BA7E7B7D1B11DBB203F00103DBB21946FE
:100A2C0089000B445B00DBB21344DBB2BB763A8B20
:100A3C00BB7D9BB203F00F039BB213449BB203F537
:100A4C00FA639BB23B833A8BBB7D1B09DBB29BB237
:100A5C00194689000B445B009BB213449BB23B8349
:100A6C00386800F0C5F97B681A4607F1180303CB08
:100A7C001060516006E07B681A4607F1180303CB3F
:100A8C001060516078682037BD4680BD90B58BB042
:100A9C0002AFF8603B1D83E80600F86800F0A8F987
:100AAC000346002B40F03C810023FB6108E007F17A
:100ABC001402FB69134400221A70FB690133FB61B9
:100ACC00FB69072BF3DD787DFA7A9A4BA3FB0213B3
:100ADC00D9080B469B000B445B00D31ADBB20343D3
:100AEC00DBB27B757B7D58B2FB7A1C46FA7A914B54
:100AFC00A3FB0213D9080B469B000B445B00D31AD3
:100B0C00DBB2E31A8C4A82FB03129210DB17D31A66
:100B1C001B015BB203435BB2DBB27B757B7D03F0E5
:100B2C007F03DBB27B75B87DBA7A824BA3FB0213D1
:100B3C00D9080B469B000B445B00D31ADBB2034372
:100B4C00DBB2BB75BB7D58B2BB7A1C46BA7A794B0B
:100B5C00A3FB0213D9080B469B000B445B00D31A72
:100B6C00DBB2E31A744A82FB03129210DB17D31A1E
:100B7C001B015BB203435BB2DBB2BB75F87D7A7AC7
:100B8C006C4BA3FB0213D9080B469B000B445B0078
:100B9C00D31ADBB20343DBB2FB75FB7D58B27B7A15
:100BAC001C467A7A634BA3FB0213D9080B469B00B5
:100BBC000B445B00D31ADBB2E31A5F4A82FB0312CD
:100BCC009210DB17D31A1B015BB203435BB2DBB28F
:100BDC00FB75FB7D23F04003DBB2FB753A7E3B7A61
:100BEC001343DBB23B76787EFA79524BA3FB0213AC
:100BFC00D9080B469B000B445B00D31ADBB20343B2
:100C0C00DBB27B767B7E58B2FB791C46FA79494B7A
:100C1C00A3FB0213D9080B469B000B445B00D31AB1
:100C2C00DBB2E31A444A82FB03129210DB17D31A8D
:100C3C001B015BB203435BB2DBB27B76B87EBA7945
:100C4C003C4BA3FB0213D9080B469B000B445B00E7
:100C5C00D31ADBB20343DBB2BB76BB7E58B2BB7993
:100C6C001C46BA79334BA3FB0213D9080B469B00E5
:100C7C000B445B00D31ADBB2E31A2F4A82FB03123C
:100C8C009210DB17D31A1B015BB203435BB2DBB2CE
:100C9C00BB76FB7E58B2BB88A3F5FA62264B83FB6E
:100CAC0002139910D317C91A0B469B000B445B0017
:100CBC00D11A4BB203435BB2DBB2FB76FB7E58B26C
:100CCC00BB88A3F5FA64BB88A3F5FA611A4B83FBC6
:100CDC0001239A10CB17D21A13469B0013445B00C6
:100CEC00CA1AA31A144A82FB03129210DB17D31AE6
:100CFC001B015BB203435BB2DBB2FB76FB6818688B
:100D0C00FB681B7999B2FB681B6907F1140200930D
:100D1C00082301F009FD0346002B03D0022305E054
:100D2C00012303E0F86800F063F803461846243703
:100D3C00BD4690BDCDCCCCCC6766666680B586B022
:100D4C0002AF7860786800F053F80346002B44D16A
:100D5C000023BB7300237B737B6818687B681B794B
:100D6C0099B27B681B6907F10D020093012301F016
:100D7C00DBFC0346FB73FB7B002B01D0022332E030
:100D8C007B6818687B681B7999B27B681B6907F1D3
:100D9C000E020093012301F0C5FD0346002B01D088
:100DAC00022320E0BB7B03F07F03DBB2BB73002389
:100DBC003B72BB7B7B727B6818687B681B7999B232
:100DCC007B681B6907F108020093022301F0ACFC5D
:100DDC000346002B03D0022305E0012303E07868CF
:100DEC0000F006F8034618461037BD4680BD0000DB
:100DFC0080B584B000AF7860124B9B68FB6002E05A
:100E0C00104B9B68FB607B681B68184602F0B9F9B5
:100E1C000346202B07D07B681A690A4B9B681A443F
:100E2C00FB689A42ECD87B681B68184602F0A9F95B
:100E3C000346202B01D1002300E001231846103774
:100E4C00BD4680BD10E000E080B500AF01F064F954
:100E5C0000BF80BD80B500AF01F038F900BF80BD88
:100E6C0080B483B000AF786000BF164BDB6803F032
:100E7C000103002BF9D1134B1B69124A43F00203F7
:100E8C001361104A7B6853610E4B1B690D4A43F08A
:100E9C004003136100BF0B4BDB6803F00103002B15
:100EAC00F9D1084B1B69074A23F001031361054B69
:100EBC001B69044A23F00203136100BF0C37BD46C3
:100ECC0080BC70470020024080B582B000AF7860D3
:100EDC003960FFF7BFFF124B1B69114A43F0010346
:100EEC00136100BF0E4BDB6803F00103002BF9D13B
:100EFC007B683A6892B21A8000BF094BDB6803F03A
:100F0C000103002BF9D1064B1B69054A23F00103A1
:100F1C001361FFF799FF00BF0837BD4680BD00BFC6
:100F2C000020024080B485B000AF78607B68FB6025
:100F3C00FB681B8818461437BD4680BC7047000000
:100F4C0080B582B000AF1F4B1F4A1A601D4BD022D8
:100F5C001A711C4B1D4A9A601A4B1D4ADA60194BC8
:100F6C004FF47A721A611748FFF7A4FB0346FB7122
:100F7C00FB79002B01D002231FE01248FFF7DEFEA5
:100F8C000346FB71FB79002B01D0022315E00D48C1
:100F9C00FFF733FC0346FB71FB79002B01D00223D6
:100FAC000BE000210748FFF74AFC0346FB71FB7975
:100FBC00002B01D0022300E0002318460837BD4661
:100FCC0080BD00BF000100201C010020A086010094
:100FDC000054004080B582B000AF7860396011E0F9
:100FEC00012240210C4801F042FA3B68184600F0FF
:100FFC00B9FE00224021084801F039FA3B68184636
:10100C0000F0B0FE7B685A1E7A60002BE8D100BF5E
:10101C0000BF0837BD4680BD0008014080B500AF59
:10102C000821234801F00CFA0346002B0FD10320B2
:10103C0000F098FE08211E4801F002FA0346002B2E
:10104C0005D11E210120FFF7C5FF01232EE0102141
:10105C00174801F0F5F90346002B0FD1032000F0DF
:10106C0081FE1021124801F0EBF90346002B05D14B
:10107C001E210120FFF7AEFF022317E020210C48B0
:10108C0001F0DEF90346002B0FD1032000F06AFEBD
:10109C002021074801F0D4F90346002B05D11E216D
:1010AC000120FFF797FF032300E00023184680BDC3
:1010BC0000080140B0B5A8B00CAF00F0F1FD00F095
:1010CC0063FB00F017FC00F09BFB00F0C7FB50210A
:1010DC000120FFF77FFF4FF480430A93944B099351
:1010EC004FF400430893924B07934FF4807306938D
:1010FC00904B05934FF4007304938E4B03934FF472
:10110C00806302938B4B01934FF480530093894B74
:10111C00022210218848FFF79EF900224FF400614B
:10112C00844801F0A4F9002200218348FFF726FA35
:10113C0082498148FFF789FA8148FFF7F3FE03469D
:10114C001A46804B1A608048FFF7ECFE03461A469D
:10115C007E4B1A607B4B1B68172B02DD794B0022F0
:10116C001A607A4B1B683B2B02DD784B00221A600D
:10117C00FFF7E6FE0346002B05D04FF47A710120F1
:10118C00FFF728FF03E064210320FFF723FF704BD8
:10119C001B68002B40F088806748FFF76DFA7EE0F3
:1011AC006C4C3B466C491846FFF775FB23463A4698
:1011BC001068516803C3674B5B791A46654B9B7982
:1011CC001946644BDB7900930B466449644804F080
:1011DC00DFFC002200215848FFF7D0F9604956483F
:1011EC00FFF733FA5B4B1B791A465E4B53F8222000
:1011FC00584BDB781846574B9B781946554B1B8838
:10120C000193009103465849554804F0C1FC012252
:10121C0000214948FFF7B2F951494748FFF715FA41
:10122C004C4B5B791A46474B1B689A420FD1494B82
:10123C009B791A46454B1B689A4208D14B4B1B684D
:10124C00002B0CD132210320FFF7C4FE07E0002253
:10125C004021384801F00BF9444B00221A60FFF78B
:10126C00DDFE78667B6E022B03D1394B01221A60AE
:10127C0015E07B6E012B03D1354B02221A600EE078
:10128C007B6E032B0BD1394B1B68002B07D1002233
:10129C004021284801F0EBF8344B01221A602C4B0A
:1012AC001B68002B3FF47CAF294B1B68012B40F0D3
:1012BC0073812148FFF7E0F9002200211E48FFF757
:1012CC005DF92B491C48FFF7C0F940F2DC5000F0E7
:1012DC0049FD1948FFF7D0F9264B07F124041D46A8
:1012EC000FCD0FC495E8070084E80700224B07F1E7
:1012FC0008041D460FCD0FC495E8070084E80700CD
:10130C000023FB66134B5B793B64124B9B797B642C
:10131C00104BDB79BB640F4B1B79FB640D4BDB78FB
:10132C003B650C4B9B787B650A4B1B88BB652EE1A0
:10133C00000C014000080140B8010020C464000802
:10134C0000F800080000002008F80008280200201F
:10135C00240200201401002000010020D0640008A9
:10136C001002002004000020E86400082C02002079
:10137C00006500086C650008886500083A6C796C9B
:10138C00BB6C00930B46A349A34804F001FC00225C
:10139C000021A248FFF7F2F89F49A048FFF755F942
:1013AC00FB6C9F4A52F82310386D7B6DBA6D01921D
:1013BC00009303460A469B49974804F0E9FB012237
:1013CC0000219648FFF7DAF893499448FFF73DF966
:1013DC000A2000F0C7FCFB6E002B05D10022042173
:1013EC008E48FFF7CBF834E0FB6E012B05D10022C1
:1013FC0007218A48FFF7C2F82BE0FB6E022B05D1C0
:10140C0000220A218548FFF7B9F822E0FB6E032B76
:10141C0005D1012201218148FFF7B0F819E0FB6EDC
:10142C00042B05D1012205217C48FFF7A7F810E019
:10143C00FB6E052B05D1012208217848FFF79EF899
:10144C0007E0FB6E062B04D101220D217348FFF738
:10145C0095F875497148FFF7F8F8FFF7DFFD386626
:10146C003B6E032B3CD1FB6E0133FB66FB6E062BF4
:10147C0040F38D803B6CDAB26C4B5A717B6CDAB2F8
:10148C006A4B9A71BB6CDAB2684BDA71FB6CDAB2EC
:10149C00664B1A713B6DDAB2644BDA707B6DDAB263
:1014AC00624B9A70BB6D9AB2604B1A805F4B93E89B
:1014BC0006005F48FFF7EAFA5848FFF7DDF800220C
:1014CC0000215648FFF75AF85A495448FFF7BDF81F
:1014DC004FF47A7000F046FC574B00221A6056E02D
:1014EC003B6E012B28D1FB6E9B0070333B4453F8B1
:1014FC00302CFB6E9B0070333B4453F8683C9A4293
:10150C000DDDFB6E9B0070333B4453F8303C5A1E90
:10151C00FB6E9B0070333B4443F8302C37E0FB6E82
:10152C009B0070333B4453F84C2CFB6E9B00703388
:10153C003B4443F8302C2AE03B6E022B27D1FB6E48
:10154C009B0070333B4453F8302CFB6E9B00703384
:10155C003B4453F84C3C9A420DDAFB6E9B007033C3
:10156C003B4453F8303C5A1CFB6E9B0070333B449D
:10157C0043F8302C0BE0FB6E9B0070333B4453F86C
:10158C00682CFB6E9B0070333B4443F8302C2A4B89
:10159C001B68012B3FF4F2AE274B1B68022B7FF428
:1015AC00F6AD1E48FFF768F8002200211B48FEF735
:1015BC00E5FF22491948FFF748F840F2DC5000F0EB
:1015CC00D1FB1648FFF758F80023BB66C5E0002294
:1015DC0000211248FEF7D2FF19491048FFF735F8E1
:1015EC00184B1A68184B1B6818490B4804F0D0FAB2
:1015FC00012200210948FEF7C1FF07490748FFF700
:10160C0024F8BB6E002B23D1012207210348FEF7DF
:10161C00B5FF25E0D064000810020020B8010020BE
:10162C0004000020E8640008146500081401002080
:10163C000001002018650008240200202C65000819
:10164C0040650008000000202802002054650008B6
:10165C00BB6E012B04D101220A214348FEF78EFFF9
:10166C0042494148FEF7F1FFFFF7D8FCF865FB6DE6
:10167C00032B2FD1BB6E0133BB66BB6E012B6CDD14
:10168C00FFF7E8FB3A48FFF7EBFB3A4B1B681946B0
:10169C003748FFF719FC322000F064FBFFF7DAFB48
:1016AC00354B1B6819463548FFF70EFC2E48FEF7E4
:1016BC00E3FF002200212C48FEF760FF30492A4846
:1016CC00FEF7C3FF4FF47A7000F04CFB2D4B002259
:1016DC001A6042E0FB6D012B1ED1BB6E002B0DD1AD
:1016EC00244B1B68002B05DD224B1B68013B214A58
:1016FC00136032E01F4B17221A602EE01E4B1B6842
:10170C00002B05DD1C4B1B68013B1B4A136024E0BE
:10171C00194B3B221A6020E0FB6D022B1DD1BB6ED6
:10172C00002B0DD1134B1B68162B05DC114B1B68C2
:10173C000133104A136010E00E4B00221A600CE0CB
:10174C000D4B1B683A2B05DC0B4B1B6801330A4A0B
:10175C00136002E0084B00221A600A4B1B68022B34
:10176C003FF435AF13E500BFB80100201465000845
:10177C0000F80008000000202802002008F80008EB
:10178C00186500082402002080B590B000AF07F166
:10179C00180328220021184604F0F2F93B1D002200
:1017AC001A605A609A60DA601A610223BB610123E5
:1017BC00BB621023FB6200237B6307F118031846FE
:1017CC0003F0FEF90346002B01D000F029F90F239A
:1017DC007B600023BB600023FB604FF480633B61A4
:1017EC0000237B613B1D0021184603F06BFC034674
:1017FC00002B01D000F014F900BF4037BD4680BD6E
:10180C0080B500AF124B134A1A60114B124A5A6042
:10181C000F4B00229A600E4B0022DA600C4B4FF4F7
:10182C0080421A610A4B00225A61094B00229A61CC
:10183C00074B0022DA61064B00221A62044800F0C2
:10184C002FFE0346002B01D000F0EAF800BF80BD4C
:10185C00AC00002000540040A086010080B586B08A
:10186C0000AF07F1080300221A605A609A60DA6030
:10187C003B4600221A605A601D4B4FF080421A60A2
:10188C001B4B07225A601A4B00229A60184B40F2ED
:10189C00E732DA60164B00221A61154B00229A616E
:1018AC00134803F093FD0346002B01D000F0B8F869
:1018BC004FF48053BB6007F1080319460C4803F042
:1018CC00DCFE0346002B01D000F0AAF800233B609D
:1018DC0000237B603B461946054804F0B7F80346E5
:1018EC00002B01D000F09CF800BF1837BD4680BD1E
:1018FC007001002080B588B000AF07F11003002202
:10190C001A605A609A60DA60414B9B69404A43F016
:10191C00100393613E4B9B6903F01003FB60FB6863
:10192C003B4B9B693A4A43F020039361384B9B69CC
:10193C0003F02003BB60BB68354B9B69344A43F012
:10194C0004039361324B9B6903F004037B607B6857
:10195C002F4B9B692E4A43F0080393612C4B9B69D8
:10196C0003F008033B603B6800224FF40051294808
:10197C0000F07DFD00224FF4FA51274800F077FD6E
:10198C0001228021244800F072FD00224FF44041D6
:10199C00224800F06CFD4FF400533B6101237B6146
:1019AC000023BB610223FB6107F1100319461948A0
:1019BC0000F0C2FB38233B6100237B610123BB6138
:1019CC0007F110031946144800F0B6FB4FF4FE5310
:1019DC003B6101237B610023BB610223FB6107F1A7
:1019EC00100319460C4800F0A7FB4FF440433B6131
:1019FC0001237B610023BB610223FB6107F1100310
:101A0C001946064800F098FB00BF2037BD4680BD44
:101A1C00001002400010014000080140000C014081
:101A2C0080B400AF72B600BFFEE7000080B485B092
:101A3C0000AF154B9B69144A43F001039361124BA1
:101A4C009B6903F00103BB60BB680F4BDB690E4A5B
:101A5C0043F08053D3610C4BDB6903F080537B6004
:101A6C007B680A4B5B68FB60FB6823F0E063FB6000
:101A7C00FB6843F00073FB60044AFB68536000BFD3
:101A8C001437BD4680BC7047001002400000014076
:101A9C0080B588B000AF786007F1100300221A609F
:101AAC005A609A60DA607B681B68194A93422BD1A2
:101ABC00184B9B69174A43F008039361154B9B69BC
:101ACC0003F00803FB60FB68C0233B6112237B61BE
:101ADC000323FB6107F1100319460F4800F02CFBA0
:101AEC000C4BDB690B4A43F40013D361094BDB69E4
:101AFC0003F40013BB60BB68002200211F2000F020
:101B0C002CFA1F2000F045FA00BF2037BD4680BDDF
:101B1C000054004000100240000C014080B584B01D
:101B2C0000AF78607B681B68B3F1804F13D10C4B0E
:101B3C00DB690B4A43F00103D361094BDB6903F00A
:101B4C000103FB60FB68002200211C2000F005FA59
:101B5C001C2000F01EFA00BF1037BD4680BD00BF30
:101B6C000010024080B400AFFEE780B400AFFEE787
:101B7C0080B400AFFEE780B400AFFEE780B400AFE6
:101B8C00FEE780B400AF00BFBD4680BC704780B498
:101B9C0000AF00BFBD4680BC704780B400AF00BF33
:101BAC00BD4680BC704780B500AF00F0BFF800BFE9
:101BBC0080BD000080B500AF024803F056FC00BFAA
:101BCC0080BD00BF7001002080B500AF024801F05D
:101BDC0009F900BF80BD00BFAC00002080B586B005
:101BEC0000AF7860144A154BD31A7B617B693B615B
:101BFC00134B1B68002B02D1114B124A1A60104B6D
:101C0C001A687B6813443A699A4207D203F08EFF34
:101C1C0003460C221A604FF0FF3309E0084B1B6897
:101C2C00FB60074B1A687B681344054A1360FB681A
:101C3C0018461837BD4680BD005000200004000037
:101C4C00300200204802002080B400AF00BFBD4627
:101C5C0080BC70470C480D490D4A002302E0D45853
:101C6C00C4500433C4188C42F9D30A4A0A4C0023DA
:101C7C0001E013600432A242FBD3FFF7E5FF03F04F
:101C8C005BFFFFF717FA7047000000209000002060
:101C9C00086600089000002048020020FEE70000C3
:101CAC0080B500AF084B1B68074A43F01003136064
:101CBC00032000F047F90F2000F008F8FFF7B6FEFC
:101CCC000023184680BD00BF0020024080B582B0C2
:101CDC0000AF7860124B1A68124B1B7819464FF400
:101CEC007A73B3FBF1F3B2FBF3F3184600F05FF930
:101CFC000346002B01D001230EE07B680F2B0AD882
:101D0C00002279684FF0FF3000F027F9064A7B6813
:101D1C001360002300E0012318460837BD4680BD40
:101D2C0020000020280000202400002080B400AFF8
:101D3C00054B1B781A46054B1B681344034A13606A
:101D4C0000BFBD4680BC7047280000203402002034
:101D5C0080B400AF024B1B681846BD4680BC704770
:101D6C003402002080B584B000AF7860FFF7F0FF3C
:101D7C00B8607B68FB60FB68B3F1FF3F05D00A4B92
:101D8C001B781A46FB681344FB6000BFFFF7E0FFAB
:101D9C000246BB68D31AFA689A42F7D800BF00BF54
:101DAC001037BD4680BD00BF2800002080B485B030
:101DBC0000AF78607B6803F00703FB600C4BDB68BB
:101DCC00BB60BA684FF6FF031340BB60FB681A0296
:101DDC00BB68134343F0BF6343F40033BB60044A56
:101DEC00BB68D36000BF1437BD4680BC704700BFD2
:101DFC0000ED00E080B400AF044BDB681B0A03F07D
:101E0C0007031846BD4680BC704700BF00ED00E0DC
:101E1C0080B483B000AF0346FB7197F90730002BF9
:101E2C000BDBFB7903F01F02064997F907305B09BE
:101E3C00012000FA02F241F8232000BF0C37BD4606
:101E4C0080BC704700E100E080B483B000AF034673
:101E5C003960FB7197F90730002B0ADB3B68DAB26B
:101E6C000C4997F907301201D2B20B4483F80023C6
:101E7C000AE03B68DAB20849FB7903F00F03043B34
:101E8C001201D2B20B441A7600BF0C37BD4680BC8F
:101E9C00704700BF00E100E000ED00E080B489B0C5
:101EAC0000AFF860B9607A60FB6803F00703FB6170
:101EBC00FB69C3F10703042B28BF0423BB61FB6937
:101ECC000433062B02D9FB69033B00E000237B6142
:101EDC004FF0FF32BB6902FA03F3DA43BB681A40D6
:101EEC007B699A404FF0FF317B6901FA03F3D943C8
:101EFC007B680B40134318462437BD4680BC7047A3
:101F0C0080B582B000AF78607B68013BB3F1807F15
:101F1C0001D301230FE00A4A7B68013B53600F2178
:101F2C004FF0FF30FFF790FF054B00229A60044BF7
:101F3C0007221A60002318460837BD4680BD00BF33
:101F4C0010E000E080B582B000AF78607868FFF7F1
:101F5C002DFF00BF0837BD4680BD80B586B000AFF1
:101F6C000346B9607A60FB7300237B61FFF742FF85
:101F7C0078617A68B9687869FFF790FF024697F93B
:101F8C000F3011461846FFF75FFF00BF1837BD46EC
:101F9C0080BD80B582B000AF0346FB7197F9073066
:101FAC001846FFF735FF00BF0837BD4680BD80B52A
:101FBC0082B000AF78607868FFF7A2FF034618463E
:101FCC000837BD4680BD000080B584B000AF786096
:101FDC000023FB737B6893F82130022B05D07B68C0
:101FEC0004229A630123FB7351E07B681B681A6817
:101FFC007B681B6822F00E021A607B681B681A68EB
:10200C007B681B6822F001021A607B681B68224AFD
:10201C00934229D07B681B68204A934222D07B686C
:10202C001B681F4A93421AD07B681B681D4A934257
:10203C0012D07B681B681C4A93420AD07B681B68D1
:10204C001A4A934202D14FF480130EE04FF0807382
:10205C000BE04FF4803308E04FF4805305E04FF46D
:10206C00807302E0102300E00123114A53607B6867
:10207C00012283F821207B68002283F820207B68D2
:10208C005B6B002B03D07B685B6B78689847FB7BA2
:10209C0018461037BD4680BD080002401C000240A7
:1020AC003000024044000240580002406C000240E4
:1020BC000000024080B483B000AF78607B6893F876
:1020CC00213018460C37BD4680BC704780B483B0B5
:1020DC0000AF0023FB710D4B1B6903F08003002B39
:1020EC000DD00A4B0A4A5A60084B0A4A5A60074BF1
:1020FC001B6903F08003002B01D00123FB71FB79DA
:10210C0018460C37BD4680BC704700BF002002400B
:10211C0023016745AB89EFCD80B400AF054B1B693C
:10212C00044A43F08003136100231846BD4680BC6B
:10213C00704700BF0020024080B48BB000AF7860C5
:10214C00396000237B6200233B6269E101227B6AD8
:10215C0002FA03F3FB613B681B68FA691340BB612D
:10216C00BA69FB699A4240F058813B685B689A4AAD
:10217C0093425ED0984A934275D8984A934258D06D
:10218C00964A93426FD8964A934252D0944A9342BD
:10219C0069D8944A93424CD0924A934263D8924A5B
:1021AC00934246D0904A93425DD8122B2AD8122BD8
:1021BC0059D801A252F823F03F2200081922000836
:1021CC002B2200086D2200087322000873220008DD
:1021DC00732200087322000873220008732200087F
:1021EC00732200087322000873220008732200086F
:1021FC0073220008732200087322000821220008B1
:10220C0035220008794A934213D02CE03B68DB68F6
:10221C003B6229E03B68DB6804333B6224E03B68AB
:10222C00DB6808333B621FE03B68DB680C333B62C6
:10223C001AE03B689B68002B02D104233B6213E03D
:10224C003B689B68012B05D108233B627B68FA69CC
:10225C001A6109E008233B627B68FA695A6103E062
:10226C0000233B6200E000BFBB69FF2B01D87B68F9
:10227C0001E07B6804337B61BB69FF2B02D87B6A6E
:10228C009B0002E07B6A083B9B003B617B691A6800
:10229C000F213B6901FA03F3DB431A40396A3B69AE
:1022AC0001FA03F31A437B691A603B685B6803F01D
:1022BC008053002B00F0B1804D4B9B694C4A43F08E
:1022CC00010393614A4B9B6903F00103BB60BB683C
:1022DC00484A7B6A9B08023352F82330FB607B6AC6
:1022EC0003F003039B000F2202FA03F3DB43FA68AB
:1022FC001340FB607B68404A934213D07B683F4A93
:10230C0093420DD07B683E4A934207D07B683D4A8E
:10231C00934201D1032306E0042304E0022302E0EC
:10232C00012300E000237A6A02F00302920093403A
:10233C00FA681343FB602F497B6A9B080233FA68E7
:10234C0041F823203B685B6803F48033002B06D0F4
:10235C002D4B1A682C49BB6913430B6006E02A4BC2
:10236C001A68BB69DB43284913400B603B685B6808
:10237C0003F40033002B06D0234B5A682249BB6967
:10238C0013434B6006E0204B5A68BB69DB431E4984
:10239C0013404B603B685B6803F48013002B06D042
:1023AC00194B9A681849BB6913438B6006E0164BAE
:1023BC009A68BB69DB43144913408B603B685B68CC
:1023CC0003F40013002B21D00F4BDA680E49BB69C4
:1023DC001343CB6021E000BF00003210000031102D
:1023EC00000022100000211000001210000011103B
:1023FC00001002400000014000080140000C0140A8
:10240C000010014000140140000401400B4BDA683D
:10241C00BB69DB4309491340CB607B6A01337B62A8
:10242C003B681A687B6A22FA03F3002B7FF48EAEAA
:10243C0000BF00BF2C37BD4680BC70470004014074
:10244C0080B485B000AF78600B467B807B689A685F
:10245C007B881340002B02D00123FB7301E0002387
:10246C00FB73FB7B18461437BD4680BC704780B4A9
:10247C0083B000AF78600B467B8013467B707B7813
:10248C00002B03D07A887B681A6103E07B881A04DE
:10249C007B681A6100BF0C37BD4680BC70470000DA
:1024AC0080B584B000AF78607B68002B01D101232C
:1024BC002BE17B6893F83D30DBB2002B06D17B68B7
:1024CC00002283F83C207868FFF7E2FA7B6824222C
:1024DC0083F83D207B681B681A687B681B6822F0B8
:1024EC0001021A607B681B681A687B681B6842F4DF
:1024FC0000421A607B681B681A687B681B6822F4B0
:10250C0000421A6002F030FFF8607B685B68814A19
:10251C00934207D8FB68804A934294BF012300235F
:10252C00DBB206E0FB687D4A934294BF0123002393
:10253C00DBB2002B01D00123E7E0FB68784AA2FB59
:10254C0003239B0CBB607B681B685B6823F03F011B
:10255C007B681B68BA680A435A607B681B681B6AF5
:10256C0023F03F017B685B686A4A934202D8BB68E0
:10257C00013309E0BB684FF4967202FB03F3694A1E
:10258C00A2FB03239B0901337A6812680B43136285
:10259C007B681B68DB6923F44F4222F0FF027B68E7
:1025AC005B685C498B4219D8FB68591E7B685B6879
:1025BC005B00B1FBF3F3591C40F6FC730B40002B92
:1025CC000AD0FB68591E7B685B685B00B1FBF3F3B8
:1025DC000133C3F30B0351E004234FE07B689B688A
:1025EC00002B11D1FB68581E7B6859680B465B00A9
:1025FC000B44B0FBF3F30133C3F30B03002B0CBF01
:10260C0001230023DBB212E0FB68581E7B6859687B
:10261C000B469B000B4499000B44B0FBF3F30133C6
:10262C00C3F30B03002B0CBF01230023DBB2002BE5
:10263C0001D0012322E07B689B68002B0ED1FB6844
:10264C00581E7B6859680B465B000B44B0FBF3F3D8
:10265C000133C3F30B0343F400430FE0FB68581E34
:10266C007B6859680B469B000B4499000B44B0FBEC
:10267C00F3F30133C3F30B0343F440437968096864
:10268C001343CB617B681B681B6823F0C0017B681C
:10269C00DA697B681B6A1A437B681B680A431A60F9
:1026AC007B681B689B6823F4034323F0FF037A6861
:1026BC0011697A68D26811437A6812680B43936087
:1026CC007B681B68DB6823F0FF017B685A697B68B9
:1026DC009B691A437B681B680A43DA607B681B683A
:1026EC001A687B681B6842F001021A607B68002242
:1026FC001A647B68202283F83D207B6800221A63D1
:10270C007B68002283F83E20002318461037BD4614
:10271C0080BD00BFA08601007F841E00FF083D0025
:10272C0083DE1B43D34D621080B588B002AFF860D6
:10273C007A601A460B467B8113463B81FFF708FBF8
:10274C007861FB6893F83D30DBB2202B40F0E080E1
:10275C007B690093192301227049F86802F008F88C
:10276C000346002B01D00223D3E0FB6893F83C30E6
:10277C00012B01D10223CCE0FB68012283F83C2021
:10278C00FB681B681B6803F00103012B07D0FB6877
:10279C001B681A68FB681B6842F001021A60FB6830
:1027AC001B681A68FB681B6822F400621A60FB68DD
:1027BC00212283F83D20FB68102283F83E20FB6821
:1027CC0000221A64FB687A685A62FB683A895A8557
:1027DC00FB685B8D9AB2FB681A85FB68504ADA621B
:1027EC0079897B693A6AF86801F0CAFD0346002BC7
:1027FC0001D001238DE000233B61FB681B685B6902
:10280C003B61FB681B689B693B613B6966E07A69CD
:10281C00396AF86802F082F80346002B0DD0FB6889
:10282C001B6C042B07D1FB681B681A68FB681B68C0
:10283C0042F400721A6001236BE0FB685B6A1A7841
:10284C00FB681B681A61FB685B6A5A1CFB685A625E
:10285C00FB685B8D9BB2013B9AB2FB685A85FB68A7
:10286C001B8D013B9AB2FB681A85FB681B685B6980
:10287C0003F00403042B1BD1FB681B8D002B17D01A
:10288C00FB685B6A1A78FB681B681A61FB685B6AF9
:10289C005A1CFB685A62FB685B8D9BB2013B9AB277
:1028AC00FB685A85FB681B8D013B9AB2FB681A8545
:1028BC007A69396AF86802F072F80346002B0DD079
:1028CC00FB681B6C042B07D1FB681B681A68FB6840
:1028DC001B6842F400721A6001231AE0FB681B8D1E
:1028EC00002B94D1FB681B681A68FB681B6842F4C8
:1028FC0000721A60FB68202283F83D20FB680022DE
:10290C0083F83E20FB68002283F83C20002300E083
:10291C00022318461837BD4680BD00BF02001000C8
:10292C000000FFFF80B58CB002AFF8607A601A46E9
:10293C000B467B8113463B8100233B62FFF708FA71
:10294C007862FB6893F83D30DBB2202B40F03F827D
:10295C007B6A0093192301227F49F86801F008FF74
:10296C000346002B01D0022332E2FB6893F83C3083
:10297C00012B01D102232BE2FB68012283F83C20BE
:10298C00FB681B681B6803F00103012B07D0FB6875
:10299C001B681A68FB681B6842F001021A60FB682E
:1029AC001B681A68FB681B6822F400621A60FB68DB
:1029BC00222283F83D20FB68102283F83E20FB681E
:1029CC0000221A64FB687A685A62FB683A895A8555
:1029DC00FB685B8D9AB2FB681A85FB685F4ADA620A
:1029EC0079897B6A3A6BF86801F04CFD0346002B41
:1029FC0001D00123ECE1FB681B8D002B13D10023CC
:102A0C00FB61FB681B685B69FB61FB681B689B696E
:102A1C00FB61FB69FB681B681A68FB681B6842F466
:102A2C0000721A60C0E1FB681B8D012B1ED1FB6884
:102A3C001B681A68FB681B6822F480621A6072B605
:102A4C0000BF0023BB61FB681B685B69BB61FB6853
:102A5C001B689B69BB61BB69FB681B681A68FB68D8
:102A6C001B6842F400721A6062B635E0FB681B8D7D
:102A7C00022B1ED1FB681B681A68FB681B6842F4AA
:102A8C0000621A6072B600BF00237B61FB681B6892
:102A9C005B697B61FB681B689B697B617B69FB687D
:102AAC001B681A68FB681B6822F480621A6062B6A5
:102ABC0012E0FB681B681A68FB681B6842F48062B2
:102ACC001A6000233B61FB681B685B693B61FB6818
:102ADC001B689B693B613B6966E1FB681B8D032BA3
:102AEC0000F21F81FB681B8D012B23D17A6A396B95
:102AFC00F86801F0C7FF0346002B01D0012367E102
:102B0C00FB681B681A69FB685B6AD2B21A70FB68B7
:102B1C005B6A5A1CFB685A62FB681B8D013B9AB2BC
:102B2C00FB681A85FB685B8D9BB2013B9AB2FB6814
:102B3C005A8539E1FB681B8D022B52D17B6A0093BD
:102B4C003B6B00220649F86801F012FE0346002B8D
:102B5C0008D001233CE100BF020010000000FFFF81
:102B6C000400010072B600BFFB681B681A68FB68A2
:102B7C001B6842F400721A60FB681B681A69FB68D8
:102B8C005B6AD2B21A70FB685B6A5A1CFB685A62A9
:102B9C00FB681B8D013B9AB2FB681A85FB685B8D49
:102BAC009BB2013B9AB2FB685A8562B600BFFB68C8
:102BBC001B681A69FB685B6AD2B21A70FB685B6AA5
:102BCC005A1CFB685A62FB681B8D013B9AB2FB686E
:102BDC001A85FB685B8D9BB2013B9AB2FB685A85E8
:102BEC00E2E07B6A00933B6B00227B49F86801F0C2
:102BFC00BFFD0346002B01D00123E9E0FB681B68F5
:102C0C001A68FB681B6822F480621A6072B600BFF7
:102C1C00FB681B681A69FB685B6AD2B21A70FB68A6
:102C2C005B6A5A1CFB685A62FB681B8D013B9AB2AB
:102C3C00FB681A85FB685B8D9BB2013B9AB2FB6803
:102C4C005A85664B1B68DB08654AA2FB03231A0AEC
:102C5C0013469B001344DA00D31A3B623B6A013BD8
:102C6C003B623B6A002B18D1FB6800221A63FB689D
:102C7C00202283F83D20FB68002283F83E20FB686D
:102C8C001B6C43F02002FB681A6462B600BFFB6841
:102C9C00002283F83C2001239AE0FB681B685B69E7
:102CAC0003F00403042BD9D1FB681B681A68FB687A
:102CBC001B6842F400721A60FB681B681A69FB6897
:102CCC005B6AD2B21A70FB685B6A5A1CFB685A6268
:102CDC00FB681B8D013B9AB2FB681A85FB685B8D08
:102CEC009BB2013B9AB2FB685A8562B600BFFB6887
:102CFC001B681A69FB685B6AD2B21A70FB685B6A64
:102D0C005A1CFB685A62FB681B8D013B9AB2FB682C
:102D1C001A85FB685B8D9BB2013B9AB2FB685A85A6
:102D2C0042E07A6A396BF86801F0ACFE0346002B7E
:102D3C0001D001234CE0FB681B681A69FB685B6AD5
:102D4C00D2B21A70FB685B6A5A1CFB685A62FB6849
:102D5C001B8D013B9AB2FB681A85FB685B8D9BB29D
:102D6C00013B9AB2FB685A85FB681B685B6903F0F0
:102D7C000403042B18D1FB681B681A69FB685B6A97
:102D8C00D2B21A70FB685B6A5A1CFB685A62FB6809
:102D9C001B8D013B9AB2FB681A85FB685B8D9BB25D
:102DAC00013B9AB2FB685A85FB681B8D002B7FF4A4
:102DBC0094AEFB68202283F83D20FB68002283F848
:102DCC003E20FB68002283F83C20002300E0022315
:102DDC0018462837BD4680BD0400010020000020A5
:102DEC0089B5F81480B588B000AF78600023BB615A
:102DFC007B681B685B687B617B68DB6A3B617B681B
:102E0C0093F83E30FB737B6893F83D30BB73FB7BD0
:102E1C00102B03D0FB7B402B40F0C1807B681B68E0
:102E2C009B69BB617B681B685B69FB61FB6903F099
:102E3C000103002B0DD13B69B3F52A0F03D03B697D
:102E4C00B3F12A4F01D1012300E00023012B00F044
:102E5C003281FB6903F00103002B0CD07B695B0A08
:102E6C0003F00103002B06D0786801F08FFE786820
:102E7C0000F0D5FC92E0FB69DB0803F00103002BAA
:102E8C0009D07B695B0A03F00103002B03D078683F
:102E9C0000F04AFD82E0FB695B0803F00103002BA4
:102EAC0009D07B695B0A03F00103002B03D078681F
:102EBC0000F063FD72E0BB699B0803F00103002B7B
:102ECC003BD07B681B685B6803F40063B3F5006F51
:102EDC0000F0F380FB69DB0903F00103002B0FD03A
:102EEC007B699B0A03F00103002B09D0FB699B084B
:102EFC0003F00103002B03D1786800F04FF94DE08B
:102F0C00FB699B0803F00103002B00F0D6807B6962
:102F1C005B0A03F00103002B00F0CF80BB7B212B5D
:102F2C0003D1786800F0D6F9C7E0FB7B402B40F06A
:102F3C00C480786800F044FABFE07B681B685B686B
:102F4C0003F40063B3F5006F00F0B780FB699B09D5
:102F5C0003F00103002B0FD07B699B0A03F00103E4
:102F6C00002B09D0FB699B0803F00103002B03D154
:102F7C00786800F0B9FA11E0FB699B0803F00103D3
:102F8C00002B00F09A807B695B0A03F00103002B95
:102F9C0000F09380786800F058FB8EE08DE07B6841
:102FAC001B6C002B04D07B681B685B69FB6107E022
:102FBC007B681B689B69BB617B681B685B69FB61F9
:102FCC00FB695B0803F00103002B12D07B695B0AE1
:102FDC0003F00103002B0CD07B681B6C002B03D07F
:102FEC007B681B689B69BB61B969786800F01CFF42
:102FFC0066E0FB691B0903F00103002B09D07B6918
:10300C005B0A03F00103002B03D0786800F056FF35
:10301C0056E0BB7B212B02D0BB7B292B25D1FB6936
:10302C00DB0903F00103002B0FD07B699B0A03F033
:10303C000103002B09D0FB699B0803F00103002B53
:10304C0003D1786800F034FE39E0FB699B0803F08B
:10305C000103002B33D07B695B0A03F00103002BC7
:10306C002DD0786800F061FE29E0FB699B0903F024
:10307C000103002B0FD07B699B0A03F00103002B8B
:10308C0009D0FB699B0803F00103002B03D178687E
:10309C0000F06BFE14E0FB699B0803F00103002BAE
:1030AC000ED07B695B0A03F00103002B08D0786813
:1030BC0000F099FE04E000BF02E000BF00E000BF9A
:1030CC002037BD4680BD80B483B000AF786000BFB0
:1030DC000C37BD4680BC704780B483B000AF7860BD
:1030EC0000BF0C37BD4680BC704780B483B000AFC6
:1030FC00786000BF0C37BD4680BC704780B483B08D
:10310C0000AF786000BF0C37BD4680BC704780B400
:10311C0083B000AF78600B46FB7013463B8000BF5A
:10312C000C37BD4680BC704780B483B000AF78606C
:10313C0000BF0C37BD4680BC704780B483B000AF75
:10314C00786000BF0C37BD4680BC704780B483B03C
:10315C0000AF786000BF0C37BD4680BC704780B4B0
:10316C0083B000AF786000BF0C37BD4680BC7047A1
:10317C0080B483B000AF786000BF0C37BD4680BC14
:10318C00704780B483B000AF78607B6893F83D30B3
:10319C00DBB218460C37BD4680BC704780B584B096
:1031AC0000AF78607B6893F83D30FB737B6893F8D5
:1031BC003E30BB737B68DB6ABB607B681B8D002B6E
:1031CC0050D1FB7B212B4DD1BB68082B1DD0BB688C
:1031DC00202B1AD0BB6813F5803F16D07B681B6878
:1031EC005A687B681B6822F4E0625A607B68112283
:1031FC001A637B68002283F83E207B68202283F8C8
:10320C003D207868FFF75FFF60E07B681B685A68B9
:10321C007B681B6822F4E0625A607B681B681A6842
:10322C007B681B6842F400721A607B6800221A6388
:10323C007B68202283F83D207B6893F83E30DBB21C
:10324C00402B07D17B68002283F83E207868FFF77B
:10325C0074FF3BE07B68002283F83E207868FFF720
:10326C0032FF33E0FB7B212B05D0BB7B402B2DD1D8
:10327C00FB7B222B2AD17B685B8D9BB2002B08D168
:10328C007B681B685A687B681B6822F480625A60F2
:10329C001CE07B6893F83E30DBB2402B03D178689E
:1032AC0000F08EF812E07B685B6A1A787B681B680A
:1032BC001A617B685B6A5A1C7B685A627B685B8DFF
:1032CC009BB2013B9AB27B685A85FFE700BF10376F
:1032DC00BD4680BD80B584B000AF78607B68DB6A8A
:1032EC00FB607B6893F83D30DBB2212B64D17B68AB
:1032FC005B8D9BB2002B12D07B685B6A1A787B6863
:10330C001B681A617B685B6A5A1C7B685A627B6813
:10331C005B8D9BB2013B9AB27B685A854CE0FB6893
:10332C00082B1DD0FB68202B1AD0FB6813F5803FAF
:10333C0016D07B681B685A687B681B6822F4E062B5
:10334C005A607B6811221A637B68002283F83E2046
:10335C007B68202283F83D207868FFF7B4FE2BE0D1
:10336C007B681B685A687B681B6822F4E0625A60B1
:10337C007B681B681A687B681B6842F400721A60D1
:10338C007B6800221A637B68202283F83D207B68CF
:10339C0093F83E30DBB2402B07D17B68002283F8D8
:1033AC003E207868FFF7C9FE06E07B68002283F8B0
:1033BC003E207868FFF787FE00BF1037BD4680BD02
:1033CC0080B584B000AF78607B6893F83D30FB73B8
:1033DC007B681B6D002B1DD17B68DB6C012B0BD12B
:1033EC007B689B6CDAB27B681B681A617B681B6D0F
:1033FC009A1C7B681A6573E07B689B6C9BB21B12F2
:10340C00DAB27B681B681A617B681B6D5A1C7B687F
:10341C001A6565E07B681B6D012B0BD17B689B6C7F
:10342C00DAB27B681B681A617B681B6D5A1C7B685F
:10343C001A6555E07B681B6D022B51D1FB7B222B4F
:10344C000DD17B681B681A687B681B6842F480721C
:10345C001A607B681B6D5A1C7B681A6540E07B68A0
:10346C005B8D9BB2002B15D0FB7B212B12D17B6883
:10347C005B6A1A787B681B681A617B685B6A5A1CEA
:10348C007B685A627B685B8D9BB2013B9AB27B680E
:10349C005A8525E07B685B8D9BB2002B20D1FB7B92
:1034AC00212B1DD17B681B685A687B681B6822F432
:1034BC00E0625A607B681B681A687B681B6842F480
:1034CC0000721A607B6800221A637B68202283F8E2
:1034DC003D207B68002283F83E207868FFF72DFEA4
:1034EC0000BF1037BD4680BD80B584B000AF78609A
:1034FC007B6893F83D30DBB2222B40F0A2807B68D6
:10350C005B8D9BB2FB60FB68032B21D97B681B682E
:10351C001A697B685B6AD2B21A707B685B6A5A1C48
:10352C007B685A627B685B8D9BB2013B9AB27B686D
:10353C005A857B685B8D9BB2032B40F082807B6845
:10354C001B685A687B681B6822F480625A6078E0BA
:10355C007B68DB6A022B74D0FB68012B02D0FB6802
:10356C00002B6ED1786801F05BFA0346002B42D138
:10357C007B681B681A687B681B6822F480621A607F
:10358C007B681B685A687B681B6822F4E0625A608F
:10359C007B681B681A697B685B6AD2B21A707B689D
:1035AC005B6A5A1C7B685A627B685B8D9BB2013BE1
:1035BC009AB27B685A857B68202283F83D207B6811
:1035CC0093F83E30DBB2402B0AD17B68002283F8A3
:1035DC003E207B6800221A637868FFF7B7FD30E065
:1035EC007B68002283F83E207B6812221A6378687D
:1035FC00FFF772FD25E07B681B685A687B681B68C7
:10360C0022F4E0625A607B681B681A697B685B6A0B
:10361C00D2B21A707B685B6A5A1C7B685A627B68F0
:10362C005B8D9BB2013B9AB27B685A857B682022EA
:10363C0083F83D207B68002283F83E207868FFF7F2
:10364C008EFD00BF1037BD4680BD80B584B000AF85
:10365C0078607B68DB6AFB607B685B8D9BB2042BBC
:10366C001BD17B681B685A687B681B6822F48062DC
:10367C005A607B681B681A697B685B6AD2B21A70E5
:10368C007B685B6A5A1C7B685A627B685B8D9BB259
:10369C00013B9AB27B685A85BDE07B685B8D9BB21F
:1036AC00032B29D17B681B685A687B681B6822F442
:1036BC0080625A60FB68042B0AD0FB68022B07D08F
:1036CC007B681B681A687B681B6822F480621A602E
:1036DC007B681B681A697B685B6AD2B21A707B685C
:1036EC005B6A5A1C7B685A627B685B8D9BB2013BA0
:1036FC009AB27B685A858EE07B685B8D9BB2022BFD
:10370C0076D1FB68012B02D0FB68102B08D17B68AB
:10371C001B681A687B681B6822F480621A6019E0C7
:10372C00FB68042B02D0FB68022B08D17B681B685A
:10373C001A687B681B6842F480621A600AE0FB68B6
:10374C00102B07D07B681B681A687B681B6842F4D7
:10375C0000721A607B681B681A697B685B6AD2B25C
:10376C001A707B685B6A5A1C7B685A627B685B8D3B
:10377C009BB2013B9AB27B685A857B681B681A69BD
:10378C007B685B6AD2B21A707B685B6A5A1C7B6876
:10379C005A627B685B8D9BB2013B9AB27B685A85FF
:1037AC007B681B685A687B681B6822F440725A60FD
:1037BC007B68202283F83D207B6893F83E30DBB297
:1037CC00402B0AD17B68002283F83E207B680022C4
:1037DC001A637868FFF7BAFC1DE07B68002283F857
:1037EC003E207B6812221A637868FFF775FC12E0A2
:1037FC007B681B681A697B685B6AD2B21A707B683B
:10380C005B6A5A1C7B685A627B685B8D9BB2013B7E
:10381C009AB27B685A8500BF1037BD4680BD80B414
:10382C0083B000AF78607B6893F83E30DBB2402BFE
:10383C0017D17B681B6D002B09D17B685B6CDBB2ED
:10384C001A467B681B6802F0FE021A6167E07B680F
:10385C005B6CDBB243F00103DAB27B681B681A6164
:10386C005DE07B681B69B3F5804F33D17B6893F8BF
:10387C003D30DBB2212B09D17B685B6CDBB21A4685
:10388C007B681B6802F0FE021A6108E07B685B6CC7
:10389C00DBB243F00103DAB27B681B681A617B6808
:1038AC005B6B002B04D07B685B6B9B6A002B08D195
:1038BC007B689B6B002B32D07B689B6B9B6A002BCD
:1038CC002DD07B681B685A687B681B6842F40062C9
:1038DC005A6024E07B681B6D002B0ED17B685B6CFF
:1038EC009BB2DB11DBB203F00603DBB263F00F0318
:1038FC00DAB27B681B681A6111E07B681B6D012BC7
:10390C000DD17B685B6C9BB2DB11DBB203F0060361
:10391C00DBB263F00E03DAB27B681B681A6100BF7E
:10392C000C37BD4680BC704780B483B000AF786064
:10393C007B685B6CDAB27B681B681A617B685B6BBB
:10394C00002B04D07B685B6B9B6A002B08D17B68D7
:10395C009B6B002B0CD07B689B6B9B6A002B07D05E
:10396C007B681B685A687B681B6842F400625A606B
:10397C0000BF0C37BD4680BC704780B491B000AF1F
:10398C0078607B6893F83E3087F83F307B68DB6A61
:10399C00BB637B681B6B7B637B6893F83D30DBB24E
:1039AC00222B40F074817B681B6D002B0FD197F894
:1039BC003F30402B0BD100233B637B681B685B695A
:1039CC003B637B681B689B693B633B6B6BE17B6870
:1039DC001B6D002B1DD17B681B69B3F5404F18D1B3
:1039EC000023FB627B681B685B69FB627B681B685E
:1039FC009B69FB62FB6A7B681B681A687B681B68A7
:103A0C0042F480721A607B681B6D5A1C7B681A65C5
:103A1C0049E17B685B8D9BB2002B13D10023BB6209
:103A2C007B681B685B69BB627B681B689B69BB62BC
:103A3C00BB6A7B681B681A687B681B6842F400725F
:103A4C001A6020E17B685B8D9BB2012B40F08A8071
:103A5C00BB6B13F5803F37D17B681B681A687B689A
:103A6C001B6822F480621A607B681B685B6803F435
:103A7C000063B3F5006F13D17B681B681A687B6811
:103A8C001B6822F480621A6000237B627B681B68CF
:103A9C005B697B627B681B689B697B627B6AF2E07B
:103AAC0000233B627B681B685B693B627B681B681D
:103ABC009B693B623B6A7B681B681A687B681B6866
:103ACC0042F400721A60DEE0BB6B082B2ED0BB6B8D
:103ADC00202B2BD07B6B122B02D1BB6B012B25D156
:103AEC00BB6B042B0ED0BB6B022B0BD0BB6B102B08
:103AFC0008D07B681B681A687B681B6822F480629C
:103B0C001A6007E07B681B681A687B681B6842F4C4
:103B1C0080621A600023FB617B681B685B69FB6138
:103B2C007B681B689B69FB61FB69ACE07B681B686D
:103B3C001A687B681B6822F480621A600023BB61E0
:103B4C007B681B685B69BB617B681B689B69BB619D
:103B5C00BB697B681B681A687B681B6842F400723F
:103B6C001A6090E07B685B8D9BB2022B58D1BB6BCB
:103B7C00042B21D0BB6B022B1ED0BB6B102B1BD08C
:103B8C007B681B681A687B681B6842F400621A60C9
:103B9C0000237B617B681B685B697B617B681B68AE
:103BAC009B697B617B697B681B681A687B681B68F7
:103BBC0022F480621A6012E07B681B681A687B68CA
:103BCC001B6842F480621A6000233B617B681B68AF
:103BDC005B693B617B681B689B693B613B697B68EC
:103BEC001B685B6803F40063B3F5006F4BD1BB6BD0
:103BFC0013F5803F0BD0BB6B012B08D0BB6B082B94
:103C0C0005D0BB6B102B02D0BB6B202B3BD17B6840
:103C1C001B685A687B681B6842F480525A6032E019
:103C2C007B681B681A687B681B6842F480621A60A8
:103C3C007B681B685B6803F40063B3F5006F17D1F6
:103C4C00BB6B13F5803F0BD0BB6B012B08D0BB6B50
:103C5C00082B05D0BB6B102B02D0BB6B202B07D1D4
:103C6C007B681B685A687B681B6842F480525A60F8
:103C7C000023FB607B681B685B69FB607B681B68CF
:103C8C009B69FB60FB687B6800221A650BE00023D4
:103C9C00BB607B681B685B69BB607B681B689B694E
:103CAC00BB60BB68FFE700BF4437BD4680BC7047B4
:103CBC0080B584B000AF78607B6893F83D30FB73BF
:103CCC007B685B8D9BB2002B2BD07B685B6A1A7870
:103CDC007B681B681A617B685B6A5A1C7B685A623A
:103CEC007B685B8D9BB2013B9AB27B685A857B6883
:103CFC005B8D9BB2002B14D1FB7B292B11D17B68E4
:103D0C001B685A687B681B6822F480625A607B6867
:103D1C0021221A637B68282283F83D207868FFF7FC
:103D2C00E4F900BF1037BD4680BD80B483B000AF4E
:103D3C0078607B685B8D9BB2002B11D07B685B6AD3
:103D4C001A787B681B681A617B685B6A5A1C7B68F3
:103D5C005A627B685B8D9BB2013B9AB27B685A8539
:103D6C0000BF0C37BD4680BC704780B584B000AF37
:103D7C0078607B6893F83D30FB737B685B8D9BB2FE
:103D8C00002B2CD07B681B681A697B685B6AD2B2EB
:103D9C001A707B685B6A5A1C7B685A627B685B8D05
:103DAC009BB2013B9AB27B685A857B685B8D9BB258
:103DBC00002B14D1FB7B2A2B11D17B681B685A6812
:103DCC007B681B6822F480625A607B6822221A632B
:103DDC007B68282283F83D207868FFF78FF900BFB5
:103DEC001037BD4680BD80B483B000AF78607B686F
:103DFC005B8D9BB2002B12D07B681B681A697B68A9
:103E0C005B6AD2B21A707B685B6A5A1C7B685A6216
:103E1C007B685B8D9BB2013B9AB27B685A8500BF75
:103E2C000C37BD4680BC704780B584B000AF78605D
:103E3C0039600023FB737B6893F83D30DBB203F0F1
:103E4C002803282B27D17B681B685A687B681B6862
:103E5C0022F480625A603B689B0803F00103002B3C
:103E6C0001D10123FB733B68DB0903F00103002B39
:103E7C0003D17B68DB68BB8102E07B689B69BB81FB
:103E8C007B68002283F83C20BA89FB7B1946786852
:103E9C00FFF73DF90EE00023BB607B681B685B6994
:103EAC00BB607B681B689B69BB60BB687B6800223E
:103EBC0083F83C2000BF1037BD4680BD80B584B070
:103ECC0000AF78607B6893F83D30FB737B681B68B0
:103EDC005A687B681B6822F4E0625A600023BB605E
:103EEC007B681B685B69BB607B681B681A687B68B6
:103EFC001B6842F001021A60BB687B681B681A6879
:103F0C007B681B6822F480621A607B681B685B68A4
:103F1C0003F40063B3F5006F72D1FB7B222B02D04C
:103F2C00FB7B2A2B35D17B689B6B1B685B689AB239
:103F3C007B685A857B685B8D9BB2002B05D07B68B8
:103F4C001B6C43F004027B681A647B681B685A681C
:103F5C007B681B6822F400625A607B689B6B184676
:103F6C00FEF7A8F80346012B49D07B689B6B694A86
:103F7C005A637B689B6B1846FEF726F80346002BAA
:103F8C003DD07B689B6B5B6B7A68926B1046984755
:103F9C0035E07B685B6B1B685B689AB27B685A8503
:103FAC007B685B8D9BB2002B05D07B681B6C43F050
:103FBC0004027B681A647B681B685A687B681B6800
:103FCC0022F400625A607B685B6B1846FEF772F84D
:103FDC000346012B14D07B685B6B4E4A5A637B689B
:103FEC005B6B1846FDF7F0FF0346002B08D07B688F
:103FFC005B6B5B6B7A68526B1046984700E000BFB6
:10400C007B685B8D9BB2002B3ED07B681B685B6929
:10401C0003F00403042B12D17B681B681A697B68BC
:10402C005B6AD2B21A707B685B6A5A1C7B685A62F4
:10403C007B685B8D9BB2013B9AB27B685A857B682F
:10404C001B685B6903F04003402B12D17B681B6833
:10405C001A697B685B6AD2B21A707B685B6A5A1CFD
:10406C007B685A627B685B8D9BB2013B9AB27B6822
:10407C005A857B685B8D9BB2002B05D07B681B6CD3
:10408C0043F004027B681A647B681B6C002B03D022
:10409C00786800F043F839E0FB7B2A2B09D17B6868
:1040AC0000221A637B68282283F83D207868FFF78A
:1040BC0025F87B6893F83D30DBB2282B11D17B6857
:1040CC00154ADA627B6800221A637B68202283F827
:1040DC003D207B68002283F83E207868FFF724F8A7
:1040EC0014E07B681B6B222B02D0FB7B222B0DD1A7
:1040FC007B6800221A637B68202283F83D207B6852
:10410C00002283F83E207868FEF7F8FF00BF1037D6
:10411C00BD4680BD2D4600080000FFFF80B584B071
:10412C0000AF78607B6893F83D30FB737B6893F845
:10413C003E30BB73BB7B102B02D0BB7B402B0AD118
:10414C00FB7B222B07D17B681B681A687B681B687A
:10415C0022F400621A60FB7B03F02803282B07D1A2
:10416C007B6800221A637B68282283F83D2015E0C7
:10417C007B681B685B6803F40063B3F5006F0AD0BF
:10418C00FB7B602B07D07B68202283F83D207B686B
:10419C00002283F83E207B6800221A637B681B6830
:1041AC005B6803F40063B3F5006F61D17B681B6837
:1041BC005A687B681B6822F400625A607B685B6BF0
:1041CC0093F82130012B20D07B685B6B6A4A5A63D1
:1041DC007B685B6B1846FDF7F7FE0346002B00F07F
:1041EC0089807B681B681A687B681B6822F0010257
:1041FC001A607B68202283F83D207B685B6B5B6BCD
:10420C007A68526B1046984774E07B689B6B5A4AED
:10421C005A637B689B6B1846FDF7D6FE0346002B52
:10422C0068D07B681B685B6903F04003402B0BD1A3
:10423C007B681B681A697B685B6AD2B21A707B68F0
:10424C005B6A5A1C7B685A627B681B681A687B68BD
:10425C001B6822F001021A607B68202283F83D2043
:10426C007B689B6B5B6B7A68926B1046984741E05E
:10427C007B6893F83D30DBB2602B25D17B68202224
:10428C0083F83D207B6800221A647B681B685B699D
:10429C0003F04003402B0BD17B681B681A697B68C9
:1042AC005B6AD2B21A707B685B6A5A1C7B685A6272
:1042BC007B681B681A687B681B6822F001021A6015
:1042CC007868FEF755FF15E07B681B685B6903F0A7
:1042DC004003402B0BD17B681B681A697B685B6AB7
:1042EC00D2B21A707B685B6A5A1C7B685A62786817
:1042FC00FEF735FF7B681B6CBB60BB6803F00103EA
:10430C00002B0ED1BB6803F00203002B09D1BB6854
:10431C0003F00403002B04D1BB6803F00803002B4B
:10432C0007D07B681B685A687B681B6822F4E062C4
:10433C005A607B6893F83D30FB737B681B6C03F011
:10434C000403042B13D1FB7B282B10D17B680B4A65
:10435C00DA627B6800221A637B68202283F83D2096
:10436C007B68002283F83E207868FEF7DDFE00BFF4
:10437C001037BD4680BD00BF2D4600080000FFFF72
:10438C0080B588B002AFF8607A603B600B467B81E9
:10439C00FB68DB6A7B617B69082B06D07B69012B90
:1043AC0003D07B6913F5803F08D1FB681B681A6842
:1043BC00FB681B6842F480721A600BE0FB681B6B95
:1043CC00122B07D1FB681B681A68FB681B6842F448
:1043DC0080721A603B6800937B6800224FF00111D9
:1043EC00F86800F0C5F90346002B0DD0FB681B687C
:1043FC001B6803F48073B3F5807F03D1FB684FF423
:10440C0000721A64032335E0FB681B69B3F5804F17
:10441C0008D17B89DBB21A46FB681B6802F0FE02EE
:10442C001A611BE07B89DB11DBB203F00603DBB204
:10443C0063F00F03DAB2FB681B681A613B687A6899
:10444C000E49F86800F0EBF90346002B01D001236C
:10445C0010E07B89DAB2FB681B681A613B687A68EA
:10446C000749F86800F0DBF90346002B01D0012363
:10447C0000E0002318461837BD4680BD0800010037
:10448C000200010080B588B002AFF8607A603B6032
:10449C000B467B81FB68DB6A7B61FB681B681A68D7
:1044AC00FB681B6842F480621A607B69082B06D09B
:1044BC007B69012B03D07B6913F5803F08D1FB6826
:1044CC001B681A68FB681B6842F480721A600BE068
:1044DC00FB681B6B112B07D1FB681B681A68FB6808
:1044EC001B6842F480721A603B6800937B68002260
:1044FC004FF00111F86800F03BF90346002B0DD08A
:10450C00FB681B681B6803F48073B3F5807F03D1D1
:10451C00FB684FF400721A64032379E0FB681B6993
:10452C00B3F5804F08D17B89DBB243F00103DAB2DB
:10453C00FB681B681A615FE07B89DB11DBB203F05F
:10454C000603DBB263F00F03DAB2FB681B681A6177
:10455C003B687A683049F86800F061F90346002B33
:10456C0001D0012354E07B89DAB2FB681B681A6125
:10457C003B687A682949F86800F051F90346002B2A
:10458C0001D0012344E000233B61FB681B685B699D
:10459C003B61FB681B689B693B613B69FB681B6863
:1045AC001A68FB681B6842F480721A603B680093BF
:1045BC007B6800224FF00111F86800F0D9F803462F
:1045CC00002B0DD0FB681B681B6803F48073B3F5DC
:1045DC00807F03D1FB684FF400721A64032317E049
:1045EC007B89DB11DBB203F00603DBB263F00E0355
:1045FC00DAB2FB681B681A613B687A680749F8688D
:10460C0000F00DF90346002B01D0012300E000233C
:10461C0018461837BD4680BD080001000200010095
:10462C0080B586B000AF78600023FB607B685B6A66
:10463C007B617B6993F83D30FB744B4B1B68DB084B
:10464C004A4AA2FB03231A0A13469B001344DA00BE
:10465C00D31AFB60FB68002B06D17B691B6C43F003
:10466C0020027B691A640AE0FB68013BFB607B69F2
:10467C001B681B6803F40073B3F5007FEAD07B69F9
:10468C005B6B002B03D07B695B6B00229A627B69AE
:10469C009B6B002B03D07B699B6B00229A627B691E
:1046AC001B681A687B691B6822F480621A607B693C
:1046BC0000225A857B695B6B002B03D07B695B6B9B
:1046CC0000225A637B699B6B002B03D07B699B6B2D
:1046DC0000225A637B691B681A687B691B6822F08D
:1046EC0001021A607B6993F83D30DBB2602B0ED16E
:1046FC007B69202283F83D207B69002283F83E20D1
:10470C007B6900221A647869FEF732FD27E0FB7C96
:10471C0003F02803282B17D17B691B681A687B6967
:10472C001B6842F001021A607B691B681A687B697E
:10473C001B6842F480621A607B6900221A637B69F1
:10474C00282283F83D2007E07B69202283F83D2056
:10475C007B69002283F83E207869FEF700FD00BFDC
:10476C001837BD4680BD00BF2000002089B5F81465
:10477C0080B584B000AFF860B9603B601346FB7144
:10478C0025E03B68B3F1FF3F21D0FDF7E1FA02468B
:10479C00BB69D31A3A689A4202D33B68002B16D1F4
:1047AC00FB6800221A63FB68202283F83D20FB681B
:1047BC00002283F83E20FB681B6C43F02002FB6850
:1047CC001A64FB68002283F83C20012323E0BB68B9
:1047DC001B0CDBB2012B0DD1FB681B685B69DA4348
:1047EC00BB6813409BB2002B0CBF01230023DBB230
:1047FC001A460CE0FB681B689B69DA43BB681340E4
:10480C009BB2002B0CBF01230023DBB21A46FB79B1
:10481C009A42B6D0002318461037BD4680BD80B5ED
:10482C0084B000AFF860B9607A603B6051E0FB681F
:10483C001B685B6903F48063B3F5806F23D1FB685D
:10484C001B681A68FB681B6842F400721A60FB68EC
:10485C001B686FF480625A61FB6800221A63FB6864
:10486C00202283F83D20FB68002283F83E20FB6861
:10487C001B6C43F00402FB681A64FB68002283F88B
:10488C003C20012346E07B68B3F1FF3F21D0FDF7CC
:10489C005FFA02463B68D31A7A689A4202D37B6865
:1048AC00002B16D1FB6800221A63FB68202283F8C8
:1048BC003D20FB68002283F83E20FB681B6C43F014
:1048CC002002FB681A64FB68002283F83C20012359
:1048DC0020E0BB681B0CDBB2012B0CD1FB681B6806
:1048EC005B69DA43BB6813409BB2002B14BF0123F6
:1048FC000023DBB20BE0FB681B689B69DA43BB68E7
:10490C0013409BB2002B14BF01230023DBB2002BFE
:10491C008DD1002318461037BD4680BD80B584B0BC
:10492C0000AFF860B9607A602DE0F86800F000F92B
:10493C000346002B01D001232DE0BB68B3F1FF3FF0
:10494C0021D0FDF705FA02467B68D31ABA689A4261
:10495C0002D3BB68002B16D1FB6800221A63FB68DC
:10496C00202283F83D20FB68002283F83E20FB6860
:10497C001B6C43F02002FB681A64FB68002283F86E
:10498C003C20012307E0FB681B685B6903F0800394
:10499C00802BCAD1002318461037BD4680BD80B588
:1049AC0084B000AFF860B9607A602DE0F86800F070
:1049BC00BFF80346002B01D001232DE0BB68B3F1F7
:1049CC00FF3F21D0FDF7C4F902467B68D31ABA68C1
:1049DC009A4202D3BB68002B16D1FB6800221A63E3
:1049EC00FB68202283F83D20FB68002283F83E20E0
:1049FC00FB681B6C43F02002FB681A64FB68002206
:104A0C0083F83C20012307E0FB681B685B6903F01B
:104A1C000403042BCAD1002318461037BD4680BDB1
:104A2C0080B485B000AF78600023FB60134B1B682B
:104A3C00DB08134AA2FB03231A0A13469B001344F8
:104A4C00FB60FB68013BFB60FB68002B07D17B68BC
:104A5C001B6C43F020027B681A64012308E07B681E
:104A6C001B681B6803F40073B3F5007FE9D00023C7
:104A7C0018461437BD4680BC704700BF200000208C
:104A8C0089B5F81480B584B000AFF860B9607A606D
:104A9C0042E0FB681B685B6903F01003102B19D113
:104AAC00FB681B686FF010025A61FB6800221A63E6
:104ABC00FB68202283F83D20FB68002283F83E200F
:104ACC00FB681A6CFB681A64FB68002283F83C20B4
:104ADC00012329E0FDF73CF902467B68D31ABA683A
:104AEC009A4202D3BB68002B16D1FB6800221A63D2
:104AFC00FB68202283F83D20FB68002283F83E20CF
:104B0C00FB681B6C43F02002FB681A64FB680022F4
:104B1C0083F83C20012307E0FB681B685B6903F00A
:104B2C004003402BB5D1002318461037BD4680BD3D
:104B3C0080B483B000AF78607B681B685B6903F45A
:104B4C008063B3F5806F1BD17B681B686FF4806248
:104B5C005A617B6800221A637B68202283F83D200F
:104B6C007B68002283F83E207B681B6C43F00402B8
:104B7C007B681A647B68002283F83C20012300E0E8
:104B8C00002318460C37BD4680BC704780B483B0F8
:104B9C0000AF78607B68DB6AB3F52A0F03D17B68C2
:104BAC000122DA6207E07B68DB6AB3F12A4F02D19B
:104BBC007B680822DA6200BF0C37BD4680BC7047A8
:104BCC0080B586B000AF78607B68002B01D10123E3
:104BDC0072E27B681B6803F00103002B00F08780F6
:104BEC00924B5B6803F00C03042B0CD08F4B5B686F
:104BFC0003F00C03082B12D18C4B5B6803F480334D
:104C0C00B3F5803F0BD1894B1B6803F40033002BA9
:104C1C006CD07B685B68002B68D101234CE27B680D
:104C2C005B68B3F5803F06D1804B1B687F4A43F429
:104C3C00803313602EE07B685B68002B0CD17B4BC0
:104C4C001B687A4A23F480331360784B1B68774ACD
:104C5C0023F4802313601DE07B685B68B3F5A02F01
:104C6C000CD1724B1B68714A43F4802313606F4B59
:104C7C001B686E4A43F4803313600BE06B4B1B686C
:104C8C006A4A23F480331360684B1B68674A23F429
:104C9C00802313607B685B68002B13D0FDF758F8FA
:104CAC00386108E0FDF754F802463B69D31A642BCF
:104CBC0001D9032300E25D4B1B6803F40033002B86
:104CCC00F0D014E0FDF744F8386108E0FDF740F847
:104CDC0002463B69D31A642B01D90323ECE1534BF5
:104CEC001B6803F40033002BF0D100E000BF7B689D
:104CFC001B6803F00203002B63D04C4B5B6803F082
:104D0C000C03002B0BD0494B5B6803F00C03082BF6
:104D1C001CD1464B5B6803F48033002B16D1434BFC
:104D2C001B6803F00203002B05D07B681B69012B69
:104D3C0001D00123C0E13D4B1B6823F0F8027B68D6
:104D4C005B69DB00394913430B603AE07B681B69F4
:104D5C00002B20D0364B01221A60FCF7F9FF38618A
:104D6C0008E0FCF7F5FF02463B69D31A022B01D988
:104D7C000323A1E12D4B1B6803F00203002BF0D0A1
:104D8C002A4B1B6823F0F8027B685B69DB00274920
:104D9C0013430B6015E0264B00221A60FCF7D8FF7A
:104DAC00386108E0FCF7D4FF02463B69D31A022BAA
:104DBC0001D9032380E11D4B1B6803F00203002B78
:104DCC00F0D17B681B6803F00803002B3AD07B689A
:104DDC009B69002B19D0174B01221A60FCF7B8FF06
:104DEC00386108E0FCF7B4FF02463B69D31A022B8A
:104DFC0001D9032360E10D4B5B6A03F00203002B26
:104E0C00F0D0012000F0C4FA1CE00A4B00221A601A
:104E1C00FCF79EFF38610FE0FCF79AFF02463B69F6
:104E2C00D31A022B08D9032346E100BF001002401D
:104E3C000000424280044242924B5B6A03F0020340
:104E4C00002BE9D17B681B6803F00403002B00F0F6
:104E5C00A6800023FB758B4BDB6903F08053002B82
:104E6C000DD1884BDB69874A43F08053D361854B66
:104E7C00DB6903F08053BB60BB680123FB75824B7D
:104E8C001B6803F48073002B18D17F4B1B687E4A80
:104E9C0043F480731360FCF75BFF386108E0FCF7A8
:104EAC0057FF02463B69D31A642B01D9032303E154
:104EBC00754B1B6803F48073002BF0D07B68DB68A8
:104ECC00012B06D16F4B1B6A6E4A43F00103136230
:104EDC002DE07B68DB68002B0CD16A4B1B6A694A9E
:104EEC0023F001031362674B1B6A664A23F0040329
:104EFC0013621CE07B68DB68052B0CD1614B1B6AD1
:104F0C00604A43F0040313625E4B1B6A5D4A43F034
:104F1C00010313620BE05B4B1B6A5A4A23F001033B
:104F2C001362584B1B6A574A23F0040313627B68C5
:104F3C00DB68002B15D0FCF70BFF38610AE0FCF79F
:104F4C0007FF02463B69D31A41F28832934201D9DA
:104F5C000323B1E04B4B1B6A03F00203002BEED092
:104F6C0014E0FCF7F5FE38610AE0FCF7F1FE0246AE
:104F7C003B69D31A41F28832934201D903239BE057
:104F8C00404B1B6A03F00203002BEED1FB7D012B7F
:104F9C0005D13C4BDB693B4A23F08053D3617B68E2
:104FAC00DB69002B00F08780364B5B6803F00C0349
:104FBC00082B61D07B68DB69022B46D1334B002276
:104FCC001A60FCF7C5FE386108E0FCF7C1FE02462A
:104FDC003B69D31A022B01D903236DE0294B1B68C3
:104FEC0003F00073002BF0D17B681B6AB3F5803F94
:104FFC0008D1244B5B6823F400327B689B68214901
:10500C0013434B601F4B5B6823F474127B68196A63
:10501C007B685B6A0B431B4913434B601B4B0122A0
:10502C001A60FCF795FE386108E0FCF791FE024629
:10503C003B69D31A022B01D903233DE0114B1B68AA
:10504C0003F00073002BF0D035E0104B00221A60F7
:10505C00FCF77EFE386108E0FCF77AFE02463B69FD
:10506C00D31A022B01D9032326E0064B1B6803F04D
:10507C000073002BF0D11EE07B68DB69012B07D19C
:10508C00012319E000100240007000406000424211
:10509C000B4B5B68FB60FB6803F480327B681B6A1C
:1050AC009A4206D1FB6803F470127B685B6A9A42E1
:1050BC0001D0012300E0002318461837BD4680BDFF
:1050CC000010024080B584B000AF786039607B6816
:1050DC00002B01D10123D0E06A4B1B6803F00703BE
:1050EC003A689A4210D9674B1B6823F0070265494E
:1050FC003B6813430B60634B1B6803F007033A6870
:10510C009A4201D00123B8E07B681B6803F00203CC
:10511C00002B20D07B681B6803F00403002B05D008
:10512C00594B5B68584A43F4E06353607B681B68D7
:10513C0003F00803002B05D0534B5B68524A43F431
:10514C0060535360504B5B6823F0F0027B689B68A4
:10515C004D4913434B607B681B6803F00103002B24
:10516C0040D07B685B68012B07D1474B1B6803F46D
:10517C000033002B15D101237FE07B685B68022B89
:10518C0007D1414B1B6803F00073002B09D101239D
:10519C0073E03D4B1B6803F00203002B01D101238C
:1051AC006BE0394B5B6823F003027B685B68364924
:1051BC0013434B60FCF7CCFDF8600AE0FCF7C8FD2C
:1051CC000246FB68D31A41F28832934201D9032379
:1051DC0053E02D4B5B6803F00C027B685B689B0013
:1051EC009A42EBD1274B1B6803F007033A689A42AB
:1051FC0010D2244B1B6823F0070222493B6813434F
:10520C000B60204B1B6803F007033A689A4201D0ED
:10521C00012332E07B681B6803F00403002B08D0E9
:10522C00194B5B6823F4E0627B68DB681649134317
:10523C004B607B681B6803F00803002B09D0124BF2
:10524C005B6823F460527B681B69DB000E491343D7
:10525C004B6000F021F802460B4B5B681B0903F016
:10526C000F030A49CB5C22FA03F3094A1360094B7A
:10527C001B681846FCF72AFD002318461037BD465C
:10528C0080BD00BF0020024000100240B465000841
:10529C00200000202400002090B48AB000AF294BDD
:1052AC003C1D0FCB84E80F0040F201233B80002310
:1052BC00FB610023BB6100237B6200237B61002325
:1052CC003B62214B5B68FB61FB6903F00C03042B15
:1052DC0002D0082B03D02BE01C4B3B622BE0FB696C
:1052EC009B0C03F00F0328333B4413F8243C7B61E5
:1052FC00FB6903F48033002B12D0134B5B685B0CFF
:10530C0003F0010328333B4413F8283CBB617B6951
:10531C000E4A03FB02F2BB69B2FBF3F37B6204E0BF
:10532C007B690B4A02FB03F37B627B6A3B6202E004
:10533C00064B3B6200BF3B6A18462837BD4690BC03
:10534C00704700BFA46500080010024000127A00EC
:10535C0000093D0080B400AF024B1B681846BD46E7
:10536C0080BC70472000002080B500AFFFF7F2FF33
:10537C000246054B5B681B0A03F007030349CB5C31
:10538C0022FA03F3184680BD00100240C4650008E1
:10539C0080B485B000AF78600A4B1B680A4AA2FB48
:1053AC0003235B0A7A6802FB03F3FB6000BFFB6814
:1053BC005A1EFA60002BF9D100BF00BF1437BD464E
:1053CC0080BC704720000020D34D621080B582B0A5
:1053DC0000AF78607B68002B01D1012341E07B6832
:1053EC0093F83D30DBB2002B06D17B68002283F8AA
:1053FC003C207868FCF792FB7B68022283F83D2006
:10540C007B681A687B6804331946104600F026FA4C
:10541C007B68012283F846207B68012283F83E20BA
:10542C007B68012283F83F207B68012283F84020AF
:10543C007B68012283F841207B68012283F842209B
:10544C007B68012283F843207B68012283F8442087
:10545C007B68012283F845207B68012283F83D207C
:10546C00002318460837BD4680BD80B582B000AF1A
:10547C0078607B681B681B6903F00203022B22D146
:10548C007B681B68DB6803F00203022B1BD17B6873
:10549C001B686FF002021A617B6801221A777B6825
:1054AC001B689B6903F00303002B03D0786800F0A2
:1054BC00BAF905E0786800F0ADF9786800F0BCF94D
:1054CC007B6800221A777B681B681B6903F0040356
:1054DC00042B22D17B681B68DB6803F00403042BCC
:1054EC001BD17B681B686FF004021A617B68022277
:1054FC001A777B681B689B6903F44073002B03D0FD
:10550C00786800F090F905E0786800F083F9786825
:10551C0000F092F97B6800221A777B681B681B6984
:10552C0003F00803082B22D17B681B68DB6803F0AF
:10553C000803082B1BD17B681B686FF008021A61EB
:10554C007B6804221A777B681B68DB6903F0030312
:10555C00002B03D0786800F066F905E0786800F05D
:10556C0059F9786800F068F97B6800221A777B6833
:10557C001B681B6903F01003102B22D17B681B687E
:10558C00DB6803F01003102B1BD17B681B686FF0DA
:10559C0010021A617B6808221A777B681B68DB692A
:1055AC0003F44073002B03D0786800F03CF905E05D
:1055BC00786800F02FF9786800F03EF97B680022DB
:1055CC001A777B681B681B6903F00103012B0ED152
:1055DC007B681B68DB6803F00103012B07D17B6838
:1055EC001B686FF001021A61786800F00AF97B6899
:1055FC001B681B6903F08003802B0ED17B681B6832
:10560C00DB6803F08003802B07D17B681B686FF08D
:10561C0080021A61786800F080FA7B681B681B694D
:10562C0003F04003402B0ED17B681B68DB6803F052
:10563C004003402B07D17B681B686FF040021A6156
:10564C00786800F002F97B681B681B6903F0200383
:10565C00202B0ED17B681B68DB6803F02003202B0A
:10566C0007D17B681B686FF020021A61786800F024
:10567C004BFA00BF0837BD4680BD80B584B000AF83
:10568C00786039607B6893F83C30012B01D10223A0
:10569C00B3E07B68012283F83C207B68022283F80C
:1056AC003D207B681B689B68FB60FB6823F07703DD
:1056BC00FB60FB6823F47F43FB607B681B68FA6824
:1056CC009A603B681B68B3F5005F3ED0B3F5005F92
:1056DC0000F28780B3F5805F00F08580B3F5805FC2
:1056EC007FD8702B1AD0702B7BD8602B50D0602BAE
:1056FC0077D8502B3CD0502B73D8402B58D0402B04
:10570C006FD8302B64D0302B6BD8202B60D0202B53
:10571C0067D8002B5CD0102B5AD062E07B681868DD
:10572C003B6899683B685A683B68DB6800F06FF926
:10573C007B681B689B68FB60FB6843F07703FB602E
:10574C007B681B68FA689A604EE07B6818683B6857
:10575C0099683B685A683B68DB6800F058F97B68CD
:10576C001B689A687B681B6842F480429A603BE035
:10577C007B6818683B6859683B68DB681A4600F020
:10578C00CFF87B681B685021184600F026F92BE0F7
:10579C007B6818683B6859683B68DB681A4600F000
:1057AC00EDF87B681B686021184600F016F91BE0C9
:1057BC007B6818683B6859683B68DB681A4600F0E0
:1057CC00AFF87B681B684021184600F006F90BE027
:1057DC007B681A683B681B681946104600F0FDF898
:1057EC0002E000BF00E000BF7B68012283F83D208F
:1057FC007B68002283F83C20002318461037BD46F6
:10580C0080BD80B483B000AF786000BF0C37BD465C
:10581C0080BC704780B483B000AF786000BF0C3799
:10582C00BD4680BC704780B483B000AF786000BFC9
:10583C000C37BD4680BC704780B483B000AF786035
:10584C0000BF0C37BD4680BC704780B483B000AF3E
:10585C00786000BF0C37BD4680BC704780B485B003
:10586C0000AF786039607B681B68FB607B68294AF5
:10587C0093420BD07B68B3F1804F07D07B68264AEC
:10588C00934203D07B68254A934208D1FB6823F0EE
:10589C007003FB603B685B68FA681343FB607B68D2
:1058AC001C4A93420BD07B68B3F1804F07D07B68C6
:1058BC00194A934203D07B68184A934208D1FB687B
:1058CC0023F44073FB603B68DB68FA681343FB60AE
:1058DC00FB6823F080023B685B691343FB607B68C9
:1058EC00FA681A603B689A687B68DA623B681A68E7
:1058FC007B689A627B68074A934203D13B681A69BA
:10590C007B681A637B6801225A6100BF1437BD465D
:10591C0080BC7047002C014000040040000800408F
:10592C0080B487B000AFF860B9607A60FB681B6A1E
:10593C007B61FB681B6A23F00102FB681A62FB683F
:10594C009B693B613B6923F0F0033B617B681B0166
:10595C003A6913433B617B6923F00A037B617A69E3
:10596C00BB6813437B61FB683A699A61FB687A698F
:10597C001A6200BF1C37BD4680BC704780B487B02C
:10598C0000AFF860B9607A60FB681B6A23F0100204
:10599C00FB681A62FB689B697B61FB681B6A3B6155
:1059AC007B6923F470437B617B681B037A69134327
:1059BC007B613B6923F0A0033B61BB681B013A6927
:1059CC0013433B61FB687A699A61FB683A691A6216
:1059DC0000BF1C37BD4680BC704780B485B000AF9B
:1059EC00786039607B689B68FB60FB6823F0700310
:1059FC00FB603A68FB68134343F00703FB607B686A
:105A0C00FA689A6000BF1437BD4680BC704780B4FA
:105A1C0087B000AFF860B9607A603B60FB689B6848
:105A2C007B617B6923F47F437B613B681A027B6853
:105A3C001A43BB6813437A6913437B61FB687A6929
:105A4C009A6000BF1C37BD4680BC704780B485B0DF
:105A5C0000AF786039607B6893F83C30012B01D142
:105A6C00022346E07B68012283F83C207B680222FB
:105A7C0083F83D207B681B685B68FB607B681B6858
:105A8C009B68BB60FB6823F07003FB603B681B6882
:105A9C00FA681343FB607B681B68FA685A607B6882
:105AAC001B68164A93420ED07B681B68B3F1804F7B
:105ABC0009D07B681B68124A934204D07B681B6830
:105ACC00104A93420CD1BB6823F08003BB603B6847
